:020000040800F2
:1000000000000320E54C0008D7420008DF4200084A
:10001000E7420008EF420008F74200080000000035
:10002000000000000000000000000000FF42000887
:100030000D430008000000001B430008294300088E
:100040003D4D00083D4D00083D4D0008354300087A
:100050003D4D0008414300084F4300085D43000840
:100060006B43000879430008874300083D4D0008B2
:100070003D4D00083D4D00083D4D00083D4D000838
:100080003D4D00083D4D00083D4D00083D4D000828
:100090003D4D00083D4D00083D4D000895430008CA
:1000A0003D4D0008B14300083D4D00083D4D00089E
:1000B0003D4D00083D4D00083D4D00083D4D0008F8
:1000C0003D4D00083D4D00083D4D00083D4D0008E8
:1000D0003D4D0008CD4300083D4D00083D4D000852
:1000E000E14300083D4D00083D4D0008F94300087C
:1000F00007440008134400081F4400083D4D000851
:100100003D4D00083D4D00082D4400083D4D0008C0
:100110003D4D00083D4D00083D4D0008414400089C
:100120003D4D00083D4D00083D4D00083D4D000887
:0C0130003D4D00083D4D00083D4D00080D
:1001400010B5054C237833B9044B13B10448AFF311
:1001500000800123237010BDC000002000000000BB
:10016000D44F010808B5034B1BB103490348AFF353
:10017000008008BD00000000C4000020D44F01082A
:10018000034613F8012B002AFBD1181A01387047D7
:1001900081F0004102E000BF83F0004330B54FEA38
:1001A00041044FEA430594EA050F08BF90EA020FA5
:1001B0001FBF54EA000C55EA020C7FEA645C7FEA38
:1001C000655C00F0E2804FEA5454D4EB5555B8BF5B
:1001D0006D420CDD2C4480EA020281EA030382EACC
:1001E000000083EA010180EA020281EA0303362D5E
:1001F00088BF30BD11F0004F4FEA01314FF4801C31
:100200004CEA113102D0404261EB410113F0004F42
:100210004FEA03334CEA133302D0524263EB4303F9
:1002200094EA050F00F0A780A4F10104D5F1200E97
:100230000DDB02FA0EFC22FA05F2801841F10001F2
:1002400003FA0EF2801843FA05F359410EE0A5F1C6
:1002500020050EF1200E012A03FA0EFC28BF4CF0F7
:10026000020C43FA05F3C01851EBE37101F00045AD
:1002700007D54FF0000EDCF1000C7EEB00006EEBBA
:100280000101B1F5801F1BD3B1F5001F0CD3490844
:100290005FEA30004FEA3C0C04F101044FEA44529B
:1002A00012F5800F80F09A80BCF1004F08BF5FEA22
:1002B000500C50F1000041EB045141EA050130BD02
:1002C0005FEA4C0C404141EB0101013C28BFB1F514
:1002D000801FE9D291F0000F04BF01460020B1FA5F
:1002E00081F308BF2033A3F10B03B3F120020CDA32
:1002F0000C3208DD02F1140CC2F10C0201FA0CF010
:1003000021FA02F10CE002F11402D8BFC2F1200C74
:1003100001FA02F120FA0CFCDCBF41EA0C0190402A
:10032000E41AA2BF01EB0451294330BD6FEA040473
:100330001F3C1CDA0C340EDC04F11404C4F120025E
:1003400020FA04F001FA02F340EA030021FA04F370
:1003500045EA030130BDC4F10C04C4F1200220FAC7
:1003600002F001FA04F340EA0300294630BD21FA05
:1003700004F0294630BD94F0000F83F4801306BFCB
:1003800081F480110134013D4EE77FEA645C18BFBF
:100390007FEA655C29D094EA050F08BF90EA020F56
:1003A00005D054EA000C04BF1946104630BD91EA4E
:1003B000030F1EBF0021002030BD5FEA545C05D151
:1003C0004000494128BF41F0004130BD14F5800490
:1003D0003CBF01F5801130BD01F0004545F0FE4104
:1003E00041F470014FF0000030BD7FEA645C1ABF39
:1003F000194610467FEA655C1CBF0B46024650EA70
:10040000013406BF52EA033591EA030F41F400219B
:1004100030BD00BF90F0000F04BF0021704730B521
:100420004FF4806404F132044FF000054FF00001F6
:1004300050E700BF90F0000F04BF0021704730B5B7
:100440004FF4806404F1320410F0004548BF40428C
:100450004FF000013EE700BF42004FEAE2014FEAE1
:1004600031014FEA02701FBF12F07F4393F07F4FBC
:1004700081F06051704732F07F4208BF704793F0BF
:100480007F4F04BF41F40021704730B54FF46074D2
:1004900001F0004521F000411CE700BF50EA0102D5
:1004A00008BF704730B54FF000050AE050EA01027E
:1004B00008BF704730B511F0004502D5404261EBEE
:1004C00041014FF4806404F132045FEA915C3FF42F
:1004D000D8AE4FF003025FEADC0C18BF03325FEACC
:1004E000DC0C18BF033202EBDC02C2F1200300FA7D
:1004F00003FC20FA02F001FA03FE40EA0E0021FAA2
:1005000002F11444BDE600BF70B54FF0FF0C4CF48F
:10051000E06C1CEA11541DBF1CEA135594EA0C0F41
:1005200095EA0C0F00F0DEF82C4481EA030621EA7C
:100530004C5123EA4C5350EA013518BF52EA0335B7
:1005400041F4801143F4801338D0A0FB02CE4FF069
:100550000005E1FB02E506F00042E0FB03E54FF099
:100560000006E1FB03569CF0000F18BF4EF0010E91
:10057000A4F1FF04B6F5007F64F5407404D25FEA8D
:100580004E0E6D4146EB060642EAC62141EA555140
:100590004FEAC52040EA5E504FEACE2EB4F1FD0C82
:1005A00088BFBCF5E06F1ED8BEF1004F08BF5FEA00
:1005B000500E50F1000041EB045170BD06F00046B2
:1005C00046EA010140EA020081EA0301B4EB5C045F
:1005D000C2BFD4EB0C0541EA045170BD41F4801157
:1005E0004FF0000E013C00F3AB8014F1360FDEBF7C
:1005F000002001F0004170BDC4F10004203C35DA58
:100600000C341BDC04F11404C4F1200500FA05F3DA
:1006100020FA04F001FA05F240EA020001F000427B
:1006200021F0004110EBD37021FA04F642EB0601F1
:100630005EEA430E08BF20EAD37070BDC4F10C041B
:10064000C4F1200500FA04F320FA05F001FA04F2DF
:1006500040EA020001F0004110EBD37041F10001CB
:100660005EEA430E08BF20EAD37070BDC4F12005D6
:1006700000FA05F24EEA020E20FA04F301FA05F23E
:1006800043EA020321FA04F001F0004121FA04F2E6
:1006900020EA020000EBD3705EEA430E08BF20EAB6
:1006A000D37070BD94F0000F0FD101F000464000F0
:1006B00041EB010111F4801F08BF013CF7D041EA72
:1006C000060195F0000F18BF704703F00046520076
:1006D00043EB030313F4801F08BF013DF7D043EA47
:1006E0000603704794EA0C0F0CEA135518BF95EAFD
:1006F0000C0F0CD050EA410618BF52EA4306D1D184
:1007000081EA030101F000414FF0000070BD50EAA2
:10071000410606BF1046194652EA430619D094EA2C
:100720000C0F02D150EA013613D195EA0C0F05D116
:1007300052EA03361CBF104619460AD181EA03016A
:1007400001F0004141F0FE4141F470014FF0000022
:1007500070BD41F0FE4141F4780170BD70B54FF0BD
:10076000FF0C4CF4E06C1CEA11541DBF1CEA13553D
:1007700094EA0C0F95EA0C0F00F0A7F8A4EB05041F
:1007800081EA030E52EA03354FEA013100F0888016
:100790004FEA03334FF0805545EA131343EA1263DF
:1007A0004FEA022245EA111545EA10654FEA002694
:1007B0000EF000419D4208BF964244F1FD0404F54D
:1007C000407402D25B084FEA3202B61A65EB0305A9
:1007D0005B084FEA32024FF480104FF4002CB6EB66
:1007E000020E75EB030E22BFB61A754640EA0C00E6
:1007F0005B084FEA3202B6EB020E75EB030E22BF26
:10080000B61A754640EA5C005B084FEA3202B6EB66
:10081000020E75EB030E22BFB61A754640EA9C0025
:100820005B084FEA3202B6EB020E75EB030E22BFF5
:10083000B61A754640EADC0055EA060E18D04FEAB3
:10084000051545EA16754FEA06164FEAC30343EA53
:1008500052734FEAC2025FEA1C1CC0D111F4801F20
:100860000BD141EA00014FF000004FF0004CB6E719
:1008700011F4801F04BF01430020B4F1FD0C88BFB8
:10088000BCF5E06F3FF6AFAEB5EB030C04BFB6EBC3
:10089000020C5FEA500C50F1000041EB045170BDB6
:1008A0000EF0004E4EEA113114EB5C04C2BFD4EBE3
:1008B0000C0541EA045170BD41F480114FF0000E67
:1008C000013C90E645EA060E8DE60CEA135594EAE3
:1008D0000C0F08BF95EA0C0F3FF43BAF94EA0C0FE6
:1008E0000AD150EA01347FF434AF95EA0C0F7FF45B
:1008F00025AF104619462CE795EA0C0F06D152EAAF
:1009000003353FF4FDAE1046194622E750EA410692
:1009100018BF52EA43067FF4C5AE50EA41047FF4A3
:100920000DAF52EA43057FF4EBAE12E74FF0FF3C08
:1009300006E000BF4FF0010C02E000BF4FF0010CD9
:100940004DF804CD4FEA410C7FEA6C5C4FEA430C52
:1009500018BF7FEA6C5C1BD001B050EA410C0CBFA1
:1009600052EA430C91EA030F02BF90EA020F002003
:10097000704710F1000F91EA030F58BF994208BF6A
:1009800090422CBFD8176FEAE37040F00100704727
:100990004FEA410C7FEA6C5C02D150EA013C07D17E
:1009A0004FEA430C7FEA6C5CD6D152EA033CD3D0C9
:1009B0005DF8040B704700BF8446104662468C46C3
:1009C0001946634600E000BF01B5FFF7B7FF0028F6
:1009D00048BF10F1000F01BD4DF808EDFFF7F4FF1F
:1009E0000CBF012000205DF808FB00BF4DF808EDAA
:1009F000FFF7EAFF34BF012000205DF808FB00BFCD
:100A00004DF808EDFFF7E0FF94BF012000205DF8EE
:100A100008FB00BF4DF808EDFFF7CEFF94BF0120A3
:100A200000205DF808FB00BF4DF808EDFFF7C4FF9C
:100A300034BF012000205DF808FB00BF4FEA410CE5
:100A40007FEA6C5C02D150EA013C0AD14FEA430CC8
:100A50007FEA6C5C02D152EA033C02D14FF0000005
:100A600070474FF0010070474FEA4102B2F1E04396
:100A700024BFB3F5001CDCF1FE5C0DD901F0004C85
:100A80004FEAC0024CEA5070B2F1004F40EB8300D5
:100A900008BF20F00100704711F0804F21D113F101
:100AA0003872BCBF01F00040704741F480114FEA3A
:100AB0005252C2F11802C2F1200C10FA0CF320FAC3
:100AC00002F018BF40F001004FEAC1234FEAD323E0
:100AD00003FA0CFC40EA0C0023FA02F34FEA43034A
:100AE000CCE77FEA625307D150EA01331EBF4FF0D3
:100AF000FE4040F44000704701F0004040F0FE40EE
:100B000040F40000704700BF53B94AB9002908BF3C
:100B100000281CBF4FF0FF314FF0FF3000F088B9C4
:100B2000ADF1080C6DE904CE00F006F8DDF804E044
:100B3000DDE9022304B070472DE9F047089D8E4699
:100B400004468846002B4AD18A42174662D9B2FA37
:100B500082F64EB1C6F1200301FA06F820FA03F33B
:100B6000B74043EA0808B4404FEA174E1FFA87FC23
:100B7000B8FBFEF1230C0EFB118843EA084301FB8E
:100B80000CF29A4209D9FB1801F1FF3080F0EA809B
:100B90009A4240F2E78002393B449A1AA3B2B2FB70
:100BA000FEF00EFB102243EA024300FB0CFC9C45C6
:100BB00009D9FB1800F1FF3280F0D6809C4540F245
:100BC000D3803B44023840EA0140A3EB0C030021F0
:100BD0001DB1F3400022C5E90032BDE8F0878B4229
:100BE00005D90DB1C5E9000100210846F5E7B3FAC2
:100BF00083F1002946D1734502D3824200F2058178
:100C0000841A6EEB030201209046002DE5D0C5E961
:100C10000048E2E7002A00F09080B2FA82F6002E47
:100C200040F0A4808A1A030C4FEA174E80B2BCB27F
:100C30000121B2FBFEFC0EFB1C2243EA024304FB33
:100C40000CF29A4207D9FB180CF1FF3802D29A42F3
:100C500000F2E080C4469B1AB3FBFEF20EFB123397
:100C600040EA034302FB04F49C4207D9FB1802F15B
:100C7000FF3002D29C4200F2CA8002461B1B42EAAD
:100C80000C40A5E7C1F120068B4022FA06F71F436E
:100C90000EFA01F420FA06F32EFA06FE4FEA17497F
:100CA000234300FA01F81FFA87FCBEFBF9F01C0C85
:100CB00009FB10EE44EA0E4400FB0CFEA64502FAC6
:100CC00001F209D93C1900F1FF3A80F09C80A64559
:100CD00040F2998002383C44A4EB0E041FFA83FED4
:100CE000B4FBF9F309FB13444EEA044403FB0CFC88
:100CF000A44508D93C1903F1FF3E80F08280A44549
:100D00007FD9023B3C4443EA0040A4EB0C04A0FB27
:100D100002EC64457346E14662D35FD05DB1B8EB47
:100D2000030264EB090404FA06F622FA01F31E43F7
:100D3000CC40C5E9006400214FE7B1FBF2FC010C97
:100D400041EA0E4180B240EA01423B4638463C4609
:100D5000B846BE462026B1FBF7F1A2EB080241EAF5
:100D60000C4166E7014618E710462CE7C6F1200261
:100D70002EFA02F3B740B14020FA02F24FEA174EC2
:100D80000A43B3FBFEF8BCB20EFB1833110C41EA68
:100D9000034108FB04F9B04089454FEA104380B293
:100DA0003ED9791808F1FF3C01D289451FD8A1EB43
:100DB0000901B1FBFEF909FB04F80EFB191192B20F
:100DC00042EA0142424529D2BA1809F1FF31C4D2A0
:100DD0004245C2D2A9F102013A44BEE7F0459DD294
:100DE000BEEB02036CEB070C0138E14696E7A7EB7C
:100DF00009094944A8F1020CB1FBFEF909FB04F80A
:100E0000DBE773467FE7504666E70846FDE63B446E
:100E1000023A33E7ACF1020C3B441CE749469CE73D
:100E2000A1EB0901C446B1FBFEF909FB04F8C4E7D4
:100E3000704700BF80B485B000AF78604FF0B0431A
:100E4000DA6C4FF0B0417B681343CB644FF0B04392
:100E5000DA6C7B681340FB60FB6800BF1437BD464B
:100E60005DF8047B7047000080B594B000AF07F1D7
:100E7000380300221A605A609A60DA601A615A6177
:100E80003B1D34220021184613F094FD4E4B4F4A6F
:100E90001A604D4B00225A604B4B00229A604A4B1D
:100EA0000022DA60484B01221A61474B08225A613E
:100EB000454B00221A76444B01225A76424B0122BE
:100EC000DA61414B002283F820203F4B00229A62D6
:100ED0003D4B0022DA623C4B002283F830203A4B33
:100EE0004FF480525A63384B002283F8382036483A
:100EF00004F0D8F90346002B01D002F003FF32487A
:100F000005F0A6FC324BBB630623FB6305233B6461
:100F10007F237B640423BB640023FB6407F1380355
:100F20001946294804F00AFB0346002B01D002F0C1
:100F3000E9FE284B7B600823BB600523FB607F2311
:100F40003B6104237B610023BB610323FB6100231E
:100F500087F82030002387F82130002387F82230DB
:100F600000237B620023BB62002387F82C303B1DEB
:100F70001946154804F0BEFF0346002B01D002F0CD
:100F8000C1FE154B7B604FF48773BB603B1D194658
:100F90000D4804F0AFFF0346002B01D002F0B2FE73
:100FA0000E4B7B604FF40573BB603B1D1946064832
:100FB00004F0A0FF0346002B01D002F0A3FE00BF07
:100FC0005037BD4680BD00BFDC000020000004504B
:100FD0002000F014000052C7002090360040C03AB4
:100FE00080B59CB000AF786007F15C0300221A6006
:100FF0005A609A60DA601A6107F10C0350220021EE
:10100000184613F0D7FC7B681B681D4A934232D107
:101010004FF48063FB604FF04053BB6407F10C0357
:10102000184609F028F80346002B01D002F06AFEAA
:101030004FF40050FFF7FEFE0120FFF7FBFE0420F7
:10104000FFF7F8FE0123FB6503233B6600237B6665
:1010500007F15C0319464FF0904006F035F8302355
:10106000FB6503233B6600237B6607F15C0319469F
:10107000044806F029F800BF7037BD4680BD00BFA8
:101080000000045000080048B0B588B000AF0B4B1A
:101090003C1D1D460FCD0FC495E8070003C42280F8
:1010A0000234130C23700FF051F93B1D18460EF05B
:1010B000DEFB00BF2037BD46B0BD00BFF04F0108CA
:1010C00080B483B000AF7860074BD3F8803023F052
:1010D000070205497B681343C1F8803000BF0C3715
:1010E000BD465DF8047B70470004005880B483B0AF
:1010F00000AF7860064BD3F8902005497B68134316
:10110000C1F8903000BF0C37BD465DF8047B7047D6
:101110000008005880B483B000AF78604FF0B0434F
:101120000A4AC3F89C204FF0B043D3F89C3023F414
:101130007C527B681B024FF0B0411343C1F89C30D6
:1011400000BF0C37BD465DF8047B7047FECAFECA7F
:1011500080B483B000AF78604FF0B0439B6823F455
:1011600000424FF0B0417B6813438B6000BF0C37E7
:10117000BD465DF8047B704780B400AF044B1B682C
:10118000C3F30B031846BD465DF8047B704700BFF0
:10119000002004E080B400AF044B1B681B0C9BB222
:1011A0001846BD465DF8047B704700BF002004E090
:1011B00080B400AF054B1B69044A23F0040313619C
:1011C00000BFBD465DF8047B704700BF00ED00E046
:1011D00080B483B000AF78607B68FF225A6200BFA2
:1011E0000C37BD465DF8047B704780B483B000AF18
:1011F00078607B68CA225A627B6853225A6200BFB9
:101200000C37BD465DF8047B704780B483B000AFF7
:10121000786039607B689B6823F007023B681A435B
:101220007B689A6000BF0C37BD465DF8047B704751
:1012300090B587B000AFF8607A601A460B46FB7233
:1012400013463B81FB685C68FB68D8683B89F97A88
:101250007A68A04778617B6918461C37BD4690BD07
:1012600090B587B000AFF8607A601A460B46FB7203
:1012700013463B81FB681C68FB68D8683B89F97A98
:101280007A68A04778617B6918461C37BD4690BDD7
:1012900080B483B000AF0346FB80B7F9063007EE99
:1012A000903AF8EEE77A9FED057A67EE877AB0EE2E
:1012B000670A0C37BD465DF8047B704723DB793E37
:1012C00080B584B000AF78600B46FB7007F1080270
:1012D000012310217868FFF7ABFFF860FB68002B53
:1012E0000FD1FB7803F00303DAB23B7A62F3830396
:1012F0003B7207F10802012310217868FFF7B0FF65
:10130000F860FB6818461037BD4680BD80B586B0D2
:1013100000AF78600B46FB70FB78FB7507F10C03A0
:101320001946786800F024FC38613B69002B40F0D6
:10133000C4803B7BC3F30003DAB23B7BC3F34003BF
:10134000DBB21343DAB23B7BC3F38003DBB213435C
:10135000DAB23B7BC3F3C003DBB21343DAB23B7BAD
:10136000C3F30013DBB21343DAB23B7BC3F3401386
:10137000DBB21343DAB23B7BC3F38013DBB213431C
:10138000DAB23B7BC3F3C013DBB21343DAB27B7B2D
:10139000C3F30003DBB21343DAB27B7BC3F3400336
:1013A000DBB21343DAB27B7BC3F38003DBB21343BC
:1013B000DAB27B7BC3F3C003DBB21343DAB27B7BCD
:1013C000C3F30013DBB21343DAB27B7BC3F34013E6
:1013D000DBB21343DAB27B7BC3F38013DBB213437C
:1013E000DAB27B7BC3F3C013DBB21343DBB2012B56
:1013F00063D107F10B031946786800F0E5FB38610B
:101400003B69002B59D1FB7A032B53D801A252F828
:1014100023F000BF251400083714000855140008F5
:101420007F140008FB78002B02D10123FB7544E0F8
:10143000FB78FB7541E0FB78002B02D10223FB75A2
:101440003BE0FB78012B02D10223FB7535E0FB78F2
:10145000FB7532E0FB78002B02D10323FB752CE0F7
:10146000FB78012B02D10323FB7526E0FB78022BCE
:1014700002D10323FB7520E0FB78FB751DE0FB78B0
:10148000002B02D10423FB7517E0FB78012B02D15E
:101490000423FB7511E0FB78022B02D10423FB75BA
:1014A0000BE0FB78032B02D10423FB7505E0FB78EE
:1014B000FB7502E0FB78FB7500BF0023BB723B6944
:1014C000002B6CD107F10A031946786800F0C4FBC1
:1014D0003861BB7A012B62D107F10903194678689C
:1014E00000F0E4FB38613B69002B58D17B7A032B79
:1014F00052D801A252F823F0091500081B15000864
:101500003915000863150008FB78002B02D1012370
:10151000FB7544E0FB78FB7541E0FB78002B02D1C2
:101520000223FB753BE0FB78012B02D10223FB7504
:1015300035E0FB78FB7532E0FB78002B02D103230A
:10154000FB752CE0FB78012B02D10323FB7526E011
:10155000FB78022B02D10323FB7520E0FB78FB759F
:101560001DE0FB78002B02D10423FB7517E0FB780C
:10157000012B02D10423FB7511E0FB78022B02D171
:101580000423FB750BE0FB78032B02D10423FB75CE
:1015900005E0FB78FB7502E0FB78FB7500BF3B695B
:1015A000002B07D107F10802012310217868FFF70B
:1015B0003FFE38613B69002B0FD1FB7D03F00F0329
:1015C000DAB23B7A62F307133B7207F10802012398
:1015D00010217868FFF744FE38613B6918461837D8
:1015E000BD4680BD80B584B000AF78600B46FB700F
:1015F00007F10802012312217868FFF719FEF8604D
:10160000FB68002B0FD1FB7803F00103DAB23B7AC1
:1016100062F386133B7207F10802012312217868F6
:10162000FFF71EFEF860FB6818461037BD4680BD08
:1016300080B584B000AF7860396006233A687921BC
:101640007868FFF7F5FDF860FB6818461037BD466F
:1016500080BD80B584B000AF78600B46FB7007F1A9
:101660000802012301217868FFF7E2FDF860FB68BA
:10167000002B0FD1FB7803F00303DAB23B7A62F35D
:1016800087133B7207F10802012301217868FFF7F5
:10169000E7FDF860FB6818461037BD4680BD80B591
:1016A00084B000AF7860396001233A680F21786810
:1016B000FFF7BEFDF860FB6818461037BD4680BDD9
:1016C00080B584B000AF78600B46FB7007F108026C
:1016D000012312217868FFF7ABFDF860FB68002B4F
:1016E0000FD1FB7803F00103DAB23B7A62F3000317
:1016F0003B7207F10802012312217868FFF7B0FD61
:10170000F860FB6818461037BD4680BD80B584B0D0
:1017100000AF78600B46FB7007F10802012312212D
:101720007868FFF785FDF860FB68002B0FD1FB7828
:1017300003F00103DAB23B7A62F382033B7207F1F2
:101740000802012312217868FFF78AFDF860FB6820
:1017500018461037BD4680BD80B586B000AF7860B2
:101760000B467B8007F10C02012308217868FFF704
:101770005FFD78617B69002B11D17B881B0A9BB2CE
:1017800003F00103DAB23B7B62F300033B7307F122
:101790000C02012308217868FFF762FD78617B69FC
:1017A000002B0AD17B88DBB23B7407F110020123C6
:1017B00007217868FFF754FD78617B691846183770
:1017C000BD4680BD80B584B000AF78600B46FB702D
:1017D00007F10802012308217868FFF729FDF86066
:1017E000FB68002B0FD1FB7803F00103DAB23B7AE0
:1017F00062F3C7133B7207F10802012308217868DE
:10180000FFF72EFDF860FB6818461037BD4680BD17
:1018100080B584B000AF78600B46FB7007F108021A
:10182000012309217868FFF703FDF860FB68002BAE
:101830000FD1FB7803F00F03DAB23B7A62F30303B4
:101840003B7207F10802012309217868FFF708FDC0
:10185000F860FB6818461037BD4680BD80B584B07F
:1018600000AF78600B46FB7007F1080201230921E5
:101870007868FFF7DDFCF860FB68002B0FD1FB7880
:1018800003F00F03DAB23B7A62F307133B7207F1FE
:101890000802012309217868FFF7E2FCF860FB6881
:1018A00018461037BD4680BD80B584B000AF786063
:1018B0000B46FB7007F1080201230A217868FFF745
:1018C000B7FCF860FB68002B0FD1FB7803F007032F
:1018D000DAB23B7A62F302033B7207F1080201239A
:1018E0000A217868FFF7BCFCF860FB6818461037DF
:1018F000BD4680BD80B584B000AF78600B46FB70FC
:1019000007F1080201230A217868FFF791FCF860CB
:10191000FB68002B0FD1FB7803F00303DAB23B7AAC
:1019200062F305133B7207F1080201230A2178686C
:10193000FFF796FCF860FB6818461037BD4680BD7F
:1019400080B584B000AF78600B46FB7007F10802E9
:1019500001230A217868FFF76BFCF860FB68002B15
:101960000FD1FB7803F00303DAB23B7A62F38713FB
:101970003B7207F1080201230A217868FFF770FC27
:10198000F860FB6818461037BD4680BD80B586B04C
:1019900000AF7860396007F1100201233A217868BE
:1019A000FFF746FC78617B69002B17D107F10C0229
:1019B00001233B217868FFF73BFC78613B7BC3F355
:1019C0000103DBB21A463B681A803B681B881B0286
:1019D0009BB23A7C13449AB23B681A807B691846E2
:1019E0001837BD4680BD80B584B000AF78603960DF
:1019F00007F1080201233B217868FFF719FCF86022
:101A00003B7AC3F38013DBB21A463B681A70FB685B
:101A100018461037BD4680BD80B584B000AF7860F1
:101A2000396007F10802012378217868FFF700FC8C
:101A3000F8603B7AC3F3C403DBB2013B182B00F21E
:101A40008D8001A252F823F0AD1A0008B51A0008E3
:101A5000BD1A0008C51A0008CD1A0008D51A0008DA
:101A6000DD1A0008E51A0008ED1A0008F51A00084A
:101A7000FD1A0008051B00080D1B0008151B0008B7
:101A80001D1B0008251B00082D1B0008351B000826
:101A90003D1B0008451B00084D1B00085D1B00088E
:101AA0005D1B00085D1B0008551B00083B680122F8
:101AB0001A7057E03B6802221A7053E03B68032219
:101AC0001A704FE03B6804221A704BE03B68052215
:101AD0001A7047E03B6806221A7043E03B68072211
:101AE0001A703FE03B6808221A703BE03B6809220D
:101AF0001A7037E03B680A221A7033E03B680B2209
:101B00001A702FE03B680C221A702BE03B680D2204
:101B10001A7027E03B680E221A7023E03B680F2200
:101B20001A701FE03B6810221A701BE03B681122FC
:101B30001A7017E03B6812221A7013E03B681322F8
:101B40001A700FE03B6814221A700BE03B681522F4
:101B50001A7007E03B6819221A7003E03B681922EB
:101B60001A7000BFFB6818461037BD4680BD00BF25
:101B700080B584B000AF7860396002217868FFF7E3
:101B800068FDF860FB68002B06D13A680123462106
:101B90007868FFF74DFBF860FB68002B07D13B68C6
:101BA0005A1C012347217868FFF742FBF860FB6865
:101BB000002B04D100217868FFF74BFDF860FB682B
:101BC00018461037BD4680BD80B584B000AF786040
:101BD000396002217868FFF73CFDF860FB68002B54
:101BE00007D107F1080201235F217868FFF720FB86
:101BF000F860FB68002B04D100217868FFF729FD0D
:101C0000F8603B7AC3F3C103DBB2032B1AD801A2FD
:101C100052F823F0251C00082D1C0008351C000874
:101C20003D1C00083B6800221A700FE03B6801224F
:101C30001A700BE03B6802221A7007E03B6803222F
:101C40001A7003E03B6800221A7000BFFB68184658
:101C50001037BD4680BD00BF80B584B000AF78604E
:101C6000396002217868FFF7F4FCF860FB68002B0C
:101C700007D107F10802012305217868FFF7D8FA98
:101C8000F860FB68002B0BD100217868FFF7E1FCBE
:101C9000F8603B7AC3F30013DBB21A463B681A7054
:101CA000FB6818461037BD4680BD000080B584B083
:101CB00000AF7860396002217868FFF7CAFCF860ED
:101CC000FB68002B07D107F1080201236021786827
:101CD000FFF7AEFAF860FB68002B2AD13B7AC3F31A
:101CE0000113DBB2032B1BD801A252F823F000BF73
:101CF000011D0008091D0008111D0008191D00081C
:101D00003B6800221A700FE03B6801221A700BE05A
:101D10003B6802221A7007E03B6803221A7003E056
:101D20003B6800221A7000BF00217868FFF791FC21
:101D3000F860FB6818461037BD4680BD80B500AF1F
:101D4000044B4FF400421A6100F024F800F029F827
:101D500000BF80BD0040005880B500AF00F035F8EE
:101D600000F04EF80349002001F0F6FA00F056F8B2
:101D700000BF80BD3807002080B400AF00BFBD4663
:101D80005DF8047B704780B500AF5020FFF7AEF9D7
:101D900000BF80BD80B400AF00BFBD465DF8047BCE
:101DA000704780B582B000AF00200EF063FB786012
:101DB0007B68002B05D07B689B791846FFF7AAF952
:101DC00000BF00BF0837BD4680BD80B500AFFFF73C
:101DD000D3FFFFF7D8FF00F003F800BF80BD00007D
:101DE00080B500AF0548FFF700FA00210348FFF770
:101DF0000CFA0248FFF7ECF900BF80BD0028004054
:101E000080B500AF4FF40040FFF7A2F910F064FC7A
:101E10000420FFF755F900BF80BD000080B588B0F1
:101E200000AF0EF0D9F8114A0021042010F018FE7E
:101E30000F4B3B600F4B7B603B4619460E480DF045
:101E40008DFF0E4BBB600E4BFB600E4B3B6140F2B7
:101E50003C537B6107F1080318460EF003FA0EF0BD
:101E6000B5F800BF2037BD4680BD00BF95FD000816
:101E700034070320891E0008A11E00084C09032016
:101E800040080320F801032080B483B000AF03466C
:101E9000FB7100BF0C37BD465DF8047B7047000046
:101EA00080B588B000AF78607B685B680B33FB61FE
:101EB000FB691B889BB2A3F51243072B1FD801A215
:101EC00052F823F0E51E0008F71E0008FF1E000868
:101ED000FF1E0008FF1E0008FF1E0008FF1E00086E
:101EE000FF1E000807F10C0318460DF0EDFC7868A2
:101EF00000F01BF804E0786800F006F800E000BF8E
:101F000000BF2037BD4680BD80B485B000AF78608B
:101F10007B685B680B33FB60FB680233BB6000BF10
:101F20001437BD465DF8047B704780B58AB000AFBA
:101F3000786007F1080300221A605A609A60DA603C
:101F400000237B6200233B627B685B680B33FB6191
:101F5000FB690233BB61BB691B78002B1DD1FFF706
:101F600093F80F233B727F23BB72FFF713F978625C
:101F70007B6A9BB2BB82FFF7FFF838623B6A9BB279
:101F8000FB8207F1080318460DF088FC0EF0A8FC50
:101F90000021012010F0B2FB07E0BB691B78012B88
:101FA00003D17B6800221A7000BF00BF2837BD46EE
:101FB00080BD80B500AF002210214FF0904005F0A9
:101FC000F3F900BF80BD80B500AF012210214FF0B2
:101FD000904005F0E9F900BF80BD80B586B000AF44
:101FE000F8607A601A460B46FB7213463B81FB6829
:101FF0007B61FB7A03F07F03DBB2FB743B89012B2F
:1020000004D9FB7C43F04003DBB2FB74FFF7D1FF44
:1020100007F1130164230122786908F02EFD0346BD
:10202000002B04D0FFF7CFFF4FF0FF3310E03A89C9
:1020300064237968786908F020FD0346002B04D0FA
:10204000FFF7C1FF4FF0FF3302E0FFF7BCFF0023B3
:1020500018461837BD4680BD80B586B000AFF86021
:102060007A601A460B46FB7213463B81FB687B6124
:10207000FB7A63F07F03DBB2FB743B89012B04D94D
:10208000FB7C43F04003DBB2FB74FFF792FF07F1E8
:10209000130164230122786908F0EFFC0346002B4A
:1020A00004D0FFF790FF4FF0FF3310E03A8964232C
:1020B0007968786908F057FE0346002B04D0FFF7D3
:1020C00082FF4FF0FF3302E0FFF77DFF0023184649
:1020D0001837BD4680BD000080B582B000AF1D4BF3
:1020E0001B78002B31D11C4B1C4A1A601A4B1C4A1E
:1020F0005A60194B1B4ADA60FFF765FF052000F0B4
:10210000DDFA0023FB71FB1D19461348FFF7C7FAE0
:1021100001211148FFF7D4FA142000F0CFFA012171
:102120000D48FFF75FFA01210B48FFF7EFFA032193
:102130000948FFF7C5F808210748FFF7E7F800F05E
:1021400021F8044B01221A7000E000BF0837BD4699
:1021500080BD00BF5001002040010020DB1F0008AF
:10216000592000085C07002080B500AF002104481A
:10217000FFF79AFB06210248FFF796FB00BF80BDE0
:102180004001002080B500AF00211048FFF78CFB14
:1021900001210E48FFF7E0FA00210C48FFF712FB7F
:1021A00008210A48FFF734FB00210848FFF756FBD7
:1021B00000210648FFF79EFB00210448FFF7C0FB03
:1021C00006210248FFF770FB00BF80BD40010020E0
:1021D00080B58CB000AFF860B9607A6007F1140385
:1021E00000221A609A8007F1130319463248FFF75C
:1021F00013FC0346002B02D04FF0FF3358E007F1E9
:102200001C0319462C48FFF713FA0346002B02D093
:102210004FF0FF334CE0FB7C022B0DD0FB7C072BF7
:102220000AD0FB7C062B07D0FB7C082B04D0FB7C60
:10223000092B01D002233BE07B7F1BB21B021AB2A9
:102240003B7F1BB213431BB2BB82FB7F1BB21B0243
:102250001AB2BB7F1BB213431BB2FB8297F821302B
:102260001BB21B021AB297F820301BB213431BB2E9
:102270003B83B7F914301846FFF70AF887ED0B0ACD
:10228000B7F916301846FFF703F887ED0A0AB7F9D1
:1022900018301846FEF7FCFF87ED090AFB68FA6A5A
:1022A0001A60BB68BA6A1A607B687A6A1A6000238F
:1022B00018463037BD4680BD4001002080B58CB047
:1022C00000AF02F0DFFDB862AF4B1B88002B1FD1BF
:1022D000AE4B00221A70AE4B00221A70AD4B00229A
:1022E0001A70AD4B00221A80AC4B00221A80AC4B06
:1022F00000221A70AB4BAC4A1A60AC4B4FF0000294
:102300001A6000224FF48071A94805F04DF8C6E12B
:102310009E4B1B78002B39D1FFF7DEFEFFF724FF21
:10232000002010F0E9FC034687F8273097F82730A3
:10233000002B03D0954B00221A70B0E1934B012281
:102340001A70934B01221A70924B00221A70924B12
:1023500000221A80914B00221A80914B00221A70A1
:10236000904B914A1A60914B4FF000021A60914ACB
:10237000BB6A1360904ABB6A1360904ABB6A1360E1
:1023800000224FF480718A4805F00EF8804B1B78CC
:10239000002B0DD0884B1B68BA6AD31AC72B07D9FC
:1023A000854ABB6A13604FF48071814805F014F8C8
:1023B000834809F02FF80346012B40F06B8100237E
:1023C0007B7500237B8207F1150319467D48FFF7D3
:1023D0000AFB7B7D002B04D0FFF7C6FE6F4B00226B
:1023E0001A8007F1120319467648FFF7CFFA034621
:1023F000002B40F051817B8AFB85FB8DB3F5807FFC
:1024000002D94FF48073FB850023BB853CE14FF07C
:102410000003FB604FF00003BB604FF000037B60E4
:102420003A1D07F1080107F10C031846FFF7D0FE2B
:1024300038623B6A022B00F023813B6A002B40F09C
:102440002D81D7ED017AF0EEE77AC7ED077A554B8B
:10245000D3ED007A97ED077A77EE677A9FED5A7A97
:1024600027EE877A4F4BD3ED007A77EE277A4D4BE4
:10247000C3ED007A4B4BD3ED007A97ED077A77EEF8
:10248000677AF0EEE77AC7ED067A484BD3ED007A2B
:1024900097ED067AB4EEE77AF1EE10FA02DD434AE0
:1024A000BB6913603D4B1B88FF2B10D8D7ED017A19
:1024B0003A4B1B885A1C91B2384A11809FED437ADF
:1024C00067EE877A424A9B001344C3ED007A334B90
:1024D0001B88FF2B40F2D580304B00221A802C4BFA
:1024E0001B78002B2ED03A4810F020FC0346BB7519
:1024F000294B1B8801339AB2274B1A80BB7D052BD1
:1025000040F0B980244B1B88632B40F2B480294BE8
:102510001B68BA6AD31A4EF65F22934240F2AB8030
:102520001B4B00221A7000224FF48071204804F0E7
:102530003BFF0022642100200FF01CF91F4ABB6AF8
:10254000136098E00023FB70FB1C1946204810F034
:1025500009FC0346FB75FB7D062B3BD10C4B01228E
:102560001A700C4B00221A700B4B00221A80114A71
:10257000BB6A1360104ABB6A136000224FF480717B
:102580000B4804F011FF76E0580E002051010020A6
:102590005201002053010020540100205601002068
:1025A000580100200800002000007A445C0100204F
:1025B000000C004860010020640100206801002038
:1025C0005C070020400100200AD7233C6F12833AA9
:1025D0006C010020FB7D002B4DD1324BD3ED007AF6
:1025E0009FED317AF4EEC77AF1EE10FA0AD82F4B4C
:1025F0001B78FF2B09D02D4B1B780133DAB22B4B04
:102600001A7002E0294B00221A70284B1B78022B0B
:1026100003D9274B00221A7007E0FB78592B01D809
:10262000012200E00022224B1A70224B1B68BA6A7A
:10263000D31AC72B0ED91F4ABB6A13601C4B1B78D9
:10264000002B01D0012300E00023F9780022184676
:102650000FF090F8164B1B78002B06D001224FF498
:102660008071154804F0A0FE05E000224FF480714F
:10267000114804F099FE0B4B4FF000021A6000E085
:1026800000BFBB8D0133BB85BA8DFB8D9A42FFF431
:10269000BEAE04E000BF02E000BF00E000BF303784
:1026A000BD4680BD5C0100200000A0425801002012
:1026B0005301002068010020000C004880B584B060
:1026C00000AF786002F0DEFBB8607B68FB60FB68FF
:1026D000B3F1FF3F0AD002F0EDFB03461A46FB6858
:1026E0001344FB6002E0FEF763FD30BF02F0CAFB5B
:1026F0000246BB68D31AFA689A42F4D800BF00BFFA
:102700001037BD4680BD000080B584B000AF0EF02C
:1027100017FA0346FB7302F0B5FBB860FB7B052B91
:1027200002D14FF47A7300E0C8237B600B4B1B6827
:10273000BA68D31A7A689A4206D8084ABB68136006
:102740000221074804F048FE0FF00CF84FF0FF306C
:1027500010F004F800BF1037BD4680BD6C050020A6
:10276000001C004880B400AF00BFBD465DF8047B8C
:10277000704780B582B000AF78600021042010F06F
:1027800091F900BF0837BD4680BD80B582B000AF6B
:102790007860022010F0F2F900BF0837BD4680BD16
:1027A00080B582B000AF7860022010F007FA00BF59
:1027B0000837BD4680BD80B485B000AF78604FF06B
:1027C000B0439A6C4FF0B0417B6813438B644FF079
:1027D000B0439A6C7B681340FB60FB6800BF143702
:1027E000BD465DF8047B704780B500AF0420FFF75D
:1027F000E2FF0220FFF7DFFF00220F21372004F065
:102800008AF9372004F0A1F900BF80BD80B485B0FB
:1028100000AF78604FF0B043DA6C4FF0B0417B68A6
:102820001343CB644FF0B043DA6C7B681340FB601A
:10283000FB6800BF1437BD465DF8047B704700009D
:1028400080B586B000AF3B1D00221A605A609A60C6
:10285000DA601A610120FFF7D9FF0420FFF7D6FFE5
:102860000220FFF7D3FF0820FFF7D0FF1020FFF76B
:10287000CDFF8020FFF7CAFF002242F20801A748DF
:1028800004F092FD01224FF46061A44804F08CFD35
:10289000012248F210014FF0904004F085FD002223
:1028A0004FF414419E4804F07FFD00224FF4407124
:1028B0004FF0904004F078FD00220221994804F086
:1028C00073FD002244F60411974804F06DFD0022C8
:1028D0000621964804F068FD01224FF450519248B9
:1028E00004F062FD02237B604FF48813BB60002379
:1028F000FB603B1D19464FF0904004F0E5FB42F6AB
:1029000008637B600123BB600023FB6000233B6105
:102910003B1D1946814804F0D7FB04237B6000234C
:10292000BB600023FB603B1D19467C4804F0CCFBD8
:102930004FF48E537B604FF48813BB600023FB6021
:102940003B1D1946754804F0BFFB48F210037B603D
:102950000123BB600023FB6003233B613B1D194641
:102960004FF0904004F0B0FB4FF400537B604FF405
:102970000413BB600123FB603B1D1946684804F04B
:10298000A3FB4FF414437B600123BB600023FB6077
:1029900000233B613B1D1946614804F095FB182359
:1029A0007B604FF48813BB600023FB603B1D19461E
:1029B0005E4804F089FB04237B604FF48813BB60FE
:1029C0000023FB603B1D1946554804F07DFB4FF486
:1029D00040737B600123BB600023FB6000233B61ED
:1029E0003B1D19464FF0904004F06EFB01237B60C5
:1029F0004FF48813BB600023FB603B1D1946494818
:102A000004F062FB02237B600123BB600023FB60B8
:102A100000233B613B1D1946424804F055FB46F636
:102A200004537B600123BB600023FB6000233B61F8
:102A30003B1D19463C4804F047FB02237B60012301
:102A4000BB600023FB6003233B613B1D19463748F5
:102A500004F03AFB4FF480537B601123BB600023EA
:102A6000FB6000233B613B1D19462F4804F02CFB03
:102A70004FF400737B600023BB600023FB603B1DB1
:102A80001946294804F020FB04237B600123BB6026
:102A90000023FB6000233B613B1D1946234804F0E3
:102AA00013FB00220F21062004F035F8062004F065
:102AB0004CF800220121072004F02DF8072004F033
:102AC00044F800220F21082004F025F8082004F023
:102AD0003CF800220121092004F01DF8092004F02F
:102AE00034F8002201210A2004F015F80A2004F02D
:102AF0002CF800220121172004F00DF8172004F013
:102B000024F800220121282004F005F8282004F0F0
:102B10001CF800BF1837BD4680BD00BF0008004844
:102B200000040048001C0048000C00480010004849
:102B300080B483B000AF7860064BD3F8802005499D
:102B40007B681343C1F8803000BF0C37BD465DF889
:102B5000047B70470008005880B483B000AF7860F1
:102B6000054B1A6804497B6813430B6000BF0C37A0
:102B7000BD465DF8047B70470008005880B483B000
:102B800000AF0D4B9B6A9BB27B600B4B9B6A9BB269
:102B90003B6005E03B687B60074B9B6A9BB23B60F8
:102BA0007A683B689A42F5D13B6818460C37BD46B7
:102BB0005DF8047B704700BF0028004080B485B0FA
:102BC00000AF03460A46FB711346BB71BA791D4933
:102BD00013465B001344DB000B4415331B78FB7377
:102BE000FB7B062B09D0FA7B164913465B00134486
:102BF000DB000B441433FA791A70FA791149134641
:102C00005B001344DB000B441533FA7B1A70FA792E
:102C10000C4913465B001344DB000B441433BA79B0
:102C20001A70BA79074913465B001344DB000B4462
:102C30001533FA791A7000BF1437BD465DF8047B6E
:102C4000704700BF7005002080B485B000AF034618
:102C50000A46FB711346BB71294B1B78DBB2BA796C
:102C60009A4232D0BA79274913465B001344DB00FD
:102C70000B4414331B78FB73FA7B224913465B0029
:102C80001344DB000B441533FA791A70FA791D49A5
:102C900013465B001344DB000B441533BA791A70FA
:102CA000FA79184913465B001344DB000B441433D4
:102CB000FA7B1A70BA79134913465B001344DB00A0
:102CC0000B441433FA791A7014E0FA790D4913465B
:102CD0005B001344DB000B441533BA791A70BA79E0
:102CE000084913465B001344DB000B441433FA79A4
:102CF0001A7000BF1437BD465DF8047B704700BFF3
:102D0000000600207005002080B584B000AF0346A7
:102D1000FB714E4B1B78DBB2062B18D14B4B1B784B
:102D2000DAB24B4B1A70494AFB791370FA79494968
:102D300013465B001344DB000B44153306221A7064
:102D4000454B4FF0FF321A600023FB8178E000F022
:102D500009F90346FB81FA793E4913465B001344A7
:102D6000DB000B4408331968FB89FA7919443948A8
:102D700013465B001344DB00034408331960FA79FF
:102D8000344913465B001344DB000B4408331B68D3
:102D9000BB602E4B1B78DBB219462E4A0B465B00FC
:102DA0000B44DB00134408331B68BA689A4237D3DC
:102DB000264B1B787B737A7B264913465B001344B2
:102DC000DB000B4415331B783B7313E07A7B2149FE
:102DD00013465B001344DB000B4415331B787B73F5
:102DE0007A7B1C4913465B001344DB000B4415330C
:102DF0001B783B733B7B062B0BD03A7B1549134664
:102E00005B001344DB000B4408331B68BA689A422A
:102E1000DCD27A7BFB7911461846FFF7CFFE0FE034
:102E20000A4B1B78DAB2FB7911461846FFF70CFF04
:102E3000064B1B78DAB2064B1A70044AFB79137002
:102E4000FB8918461037BD4680BD00BF0006002034
:102E500001060020700500200406002080B485B023
:102E600000AF03460A46FB711346BB71394B1B7812
:102E7000DBB2FA799A4211D1364B1B78DAB2364B73
:102E80001A70FA79354913465B001344DB000B4492
:102E900015331B78DAB22F4B1A703EE0FA792F49BE
:102EA00013465B001344DB000B4414331B78FB73A5
:102EB000FA792A4913465B001344DB000B441533AF
:102EC0001B78BB73F979FA7B24480B465B000B44F3
:102ED000DB00034415331B78D8B2204913465B004E
:102EE0001344DB000B44153302461A70BB7B062BE0
:102EF00013D0F979BA7B19480B465B000B44DB0011
:102F0000034414331B78D8B2144913465B001344AE
:102F1000DB000B44143302461A70FA790F4913464A
:102F20005B001344DB000B440C3301221A70094B85
:102F30001B78DBB2062B07D1BB79002B04D1084BE1
:102F40004FF0FF321A6000BF00BF1437BD465DF876
:102F5000047B704700060020010600207005002059
:102F60000406002080B582B000AF1A4B1B68B3F195
:102F7000FF3F26D0FFF702FE7860164B1B687A6889
:102F80009A4205D8134B1A687B68D31A7B600AE013
:102F9000114B1B881A467B68D31A3B600D4B1B688C
:102FA0003A6813447B600D4B1B781A467B6802FB22
:102FB00003F37B600A4B1B781A467B68D3407B6027
:102FC00001E000237B607B689BB218460837BD4652
:102FD00080BD00BF040600200C0600200A06002069
:102FE0000906002080B582B000AF0346FB80FB8855
:102FF000002B08D1FFF7C2FD0346214A13600320CE
:1030000003F0CBFD39E0FB88012B03D81D4B1B7867
:10301000012B02D0FB88013BFB8000BF1A4B1B68D1
:10302000DB6803F00403002BF8D0174B1B68DB6848
:10303000DAB2154B1B6862F49062DA60134B4FF4FE
:103040000022DA60032003F0B6FD114B5B691B0C14
:103050001B04FA880E4913434B61FFF78FFD0346AB
:10306000074A1360084B1B689A68074B1B6842F4B9
:1030700080629A60AFF3008000BF0837BD4680BD14
:103080000406002009060020380700200008005828
:103090000028004080B584B000AF454B9B6803F426
:1030A0008063B3F5806F07D100BF424B1B68DB68BC
:1030B00003F00403002BF8D13E4B1B689A683D4B8C
:1030C0001B6822F480629A603B4B1B78FB73FA7B8F
:1030D0003A4913465B001344DB000B4408331B687A
:1030E000BB60FFF73FFF0346FB80FB88BA689A424C
:1030F00005D20023BB81324B01221A704DE0FB88C0
:10310000304A128892B213441A46BB68934206D9D9
:103110002C4B1B88BB812A4B00221A703DE0BB68F8
:103120009AB2FB88D31ABB81254B01221A7034E076
:10313000FA7B224913465B001344DB000B4408333F
:103140001A68FB889A420AD2FA7B1C4913465B0034
:103150001344DB000B44083300221A6013E0FA7BAF
:10316000164913465B001344DB000B44083319680F
:10317000FB88FA7BC91A114813465B001344DB0035
:10318000034408331960FA7B0C4913465B0013446F
:10319000DB000B4415331B78FB73FB7B062BC7D17D
:1031A000BB891846FFF71EFF00BF1037BD4680BD24
:1031B000002800403807002000060020700500208D
:1031C000080600200E06002080B58AB000AFEFF39D
:1031D00010837B617B697B6272B600BF594B1B68B1
:1031E000CA225A62574B1B6853225A62554B1B68BE
:1031F0009A68544B1B6822F480629A60524B1B7889
:1032000087F8233097F82320504913465B00134476
:10321000DB000B440C331B78DBB2022B6ED197F82A
:1032200023204A4913465B001344DB000B441B6810
:10323000FB6197F82320454913465B001344DB00EC
:103240000B4410331B68BB61414B1B78DBB2002B76
:103250004CD097F823203D4913465B001344DB0014
:103260000B440D331B78DBB2012B24D197F82330AC
:1032700001211846FFF7F2FD7B6A3B613B6983F34E
:10328000108800BF97F82320304913465B00134491
:10329000DB000B4404331A6897F8233011461846B4
:1032A00000F032FA274B1B68CA225A62254B1B6872
:1032B00053225A6212E07B6AFB60FB6883F310883A
:1032C00000BF97F82330184600F09AF91D4B1B6891
:1032D000CA225A621B4B1B6853225A6297F823304A
:1032E000FA691946B86900F095FA22E0FFF7D2FEB4
:1032F0007B6ABB60BB6883F310881AE000BF114B88
:103300001B68DB6803F00403002BF8D00D4B1B682F
:10331000DB68DAB20B4B1B6862F49062DA600D4B2B
:103320004FF40022DA607B6A7B607B6883F310884D
:1033300000BF044B1B68FF225A6200BF2837BD46FE
:1033400080BD00BF38070020000600207005002067
:10335000080600200008005880B588B000AF03467A
:103360003960FB715E4B1B68CA225A625C4B1B685A
:1033700053225A625B4B9B685A4A43F02003936086
:10338000584B9B68DBB203F00703DBB2C3F10403C5
:10339000DAB2554B1A70534B1B6903F4FE034FF41A
:1033A000FE023A613A6992FAA2F2FA60FA687A6128
:1033B0007A69002A01D1202203E07A69B2FA82F206
:1033C000D2B2D340DBB20133DAB2484B1A70454B6C
:1033D0001B699BB2C3F30E039BB201339AB2444BF9
:1033E0001A80434B1B88013B404A127802FB03F3CF
:1033F000A3F5A0733C4A1278D340BB61BB694FF67A
:10340000FE72934204D93B4B4FF6FF721A8003E0E1
:10341000BB699AB2374B1A804FF40020FFF79CFB30
:103420004FF40020FFF784FBFB79002B3DD1324B9A
:1034300001221A70314B4FF0FF321A600023FB77E4
:103440000CE0FA7F2E4913465B001344DB000B446B
:103450000C3300221A70FB7F0133FB77FB7F052BB7
:10346000EFD9284B06221A701D4B1B689A681C4B1B
:103470001B6822F480629A60194B1B68DB68DAB221
:10348000174B1B6862F49062DA601F4B4FF4002206
:10349000DA60032003F08FFB114B1B689A68104B16
:1034A0001B6842F480429A6009E00D4B1B68DB68A0
:1034B00003F48063002B02D0032003F06EFB084B63
:1034C0001B68FF225A6200220321032003F023FB22
:1034D000032003F03AFB00BF2037BD4680BD00BF8C
:1034E0003807002000280040090600200A060020B6
:1034F0000C0600200E06002008060020040600200E
:1035000070050020000600200008005880B48BB031
:1035100000AFF860B9603B601346FB71002387F889
:103520002630EFF31083FB61FB693B6272B600BF8C
:1035300004E097F82630013387F8263097F82630D4
:10354000052B0CD897F826202C4913465B00134412
:10355000DB000B440C331B78DBB2002BE9D197F86E
:103560002630062B38D097F82620244913465B00D6
:103570001344DB000B440C3301221A703B6ABB611D
:10358000BB6983F3108800BF97F826201B491346B8
:103590005B001344DB000B441033FA681A6097F8A1
:1035A0002620164913465B001344DB000B440D3301
:1035B000FA791A7097F82620104913465B001344D5
:1035C000DB000B443A681A60BB6897F826201A7033
:1035D000002387F8273008E03B6A7B617B6983F32F
:1035E000108800BF012387F8273097F82730184646
:1035F0002C37BD465DF8047B704700BF7005002086
:1036000080B586B000AF0346FB71EFF31083FB601B
:10361000FB687B6172B600BF032003F0A4FA344B51
:103620001B68CA225A62324B1B6853225A62FA79CB
:10363000304913465B001344DB000B440C331B780A
:10364000DBB2022B42D1FB7900211846FFF706FCC2
:10365000294B1B78FB74FB7C062B2FD1274B9B68D7
:1036600003F48063B3F5806F07D100BF204B1B6864
:10367000DB6803F00403002BF8D11D4B1B689A682C
:103680001B4B1B6822F480629A6000BF184B1B68BA
:10369000DB6803F00403002BF8D0154B1B68DB68D4
:1036A000DAB2134B1B6862F49062DA60144B4FF489
:1036B0000022DA60032003F07EFA07E0114B1B784A
:1036C000DBB2FA7C9A4201D0FFF7E4FC084B1B689E
:1036D000FF225A62032003F038FA7B69BB60BB68A3
:1036E00083F3108800BF00BF1837BD4680BD00BF00
:1036F0003807002070050020000600200028004048
:10370000000800580106002080B586B000AF0346CF
:103710003960FB71FA793B4913465B001344DB00C7
:103720000B440C331B78DBB2022B03D1FB79184618
:10373000FFF766FFEFF31083FB60FB687B6172B6F7
:1037400000BF032003F00FFA2F4B1B68CA225A62F6
:103750002D4B1B6853225A62FA792A4913465B00A3
:103760001344DB000B440C3302221A70FA7925490A
:1037700013465B001344DB000B4408333A681A60BD
:10378000FA79204913465B001344DB000B440433F1
:103790003A681A60FB791846FFF7B6FA03467B824F
:1037A0001A4B1B787B741A4B1B78DBB27A7C9A42DB
:1037B00002D0FFF76FFC13E0FA79124913465B0061
:1037C0001344DB000B44083319687B8AFA79C91A61
:1037D0000C4813465B001344DB00034408331960B4
:1037E000094B1B68FF225A62032003F0AEF97B6984
:1037F000BB60BB6883F3108800BF00BF1837BD46AD
:1038000080BD00BF700500203807002000060020A2
:103810000106002080B584B000AFF8600B467A60E6
:10382000FB727B68984700BF1037BD4680BD80B4EF
:1038300085B000AF78604FF0B043DA6C4FF0B04124
:103840007B681343CB644FF0B043DA6C7B68134062
:10385000FB60FB6800BF1437BD465DF8047B704712
:1038600080B485B000AF78604FF0B0439A6D4FF0F0
:10387000B0417B6813438B654FF0B0439A6D7B6812
:103880001340FB60FB6800BF1437BD465DF8047B46
:103890007047000080B500AF1B4B1C4A1A601A4BE2
:1038A0001B4A5A60184B00229A60174B0122DA60BB
:1038B000154B00221A61144B00225A61124B002250
:1038C0009A61114B0022DA610F4B00221A620E48F6
:1038D00003F0E4FD0346002B01D000F013FA0021B1
:1038E000094804F075FB0346002B01D000F00AFAEA
:1038F0000021054804F0B7FB0346002B01D000F07F
:1039000001FA00BF80BD00BF100600200054004037
:103910007321600080B500AF1B4B1C4A1A601A4B24
:103920001B4A5A60184B00229A60174B0122DA603A
:10393000154B00221A61144B00225A61124B0022CF
:103940009A61114B0022DA610F4B00221A620E4875
:1039500003F0A4FD0346002B01D000F0D3F90021B1
:10396000094804F035FB0346002B01D000F0CAF9EA
:103970000021054804F077FB0346002B01D000F03E
:10398000C1F900BF80BD00BF64060020005C00409C
:103990007321600080B59CB000AF786007F15C03D4
:1039A00000221A605A609A60DA601A6107F10C030B
:1039B00050220021184610F0FDFF7B681B68374A33
:1039C000934227D10423FB604FF44033FB6207F19D
:1039D0000C03184606F04FFB0346002B01D000F005
:1039E00091F90220FFF723FF4FF4C073FB65122308
:1039F0003B6600237B660323BB660423FB6607F15B
:103A00005C031946264803F05FFB4FF40010FFF7F4
:103A100027FF3FE07B681B68224A93423AD1082384
:103A2000FB604FF440133B6307F10C03184606F0AC
:103A300022FB0346002B01D000F064F90220FFF7BF
:103A4000F6FE0120FFF7F3FE4FF48043FB651223DF
:103A50003B6600237B660323BB660423FB6607F1FA
:103A60005C0319460E4803F02FFB8023FB651223ED
:103A70003B6600237B660323BB660423FB6607F1DA
:103A80005C0319464FF0904003F01EFB4FF400001A
:103A9000FFF7E6FE00BF7037BD4680BD0054004012
:103AA00000040048005C004080B485B000AF78603E
:103AB0004FF0B0431A6D4FF0B0417B6813430B6574
:103AC0004FF0B0431A6D7B681340FB60FB6800BF8A
:103AD0001437BD465DF8047B7047000080B500AF29
:103AE000064B074A1A60054804F00AFB0346002B00
:103AF00001D000F007F900BF80BD00BFB80600206C
:103B0000000C005880B582B000AF78607B681B68FD
:103B10000D4A934213D14FF48010FFF7C5FF0022E6
:103B200007212C2002F0F7FF2C2003F00EF80022D2
:103B300007212D2002F0EFFF2D2003F006F800BF33
:103B40000837BD4680BD00BF000C005880B483B06C
:103B500000AF78604FF0B043D3F8903023F01802F4
:103B60004FF0B0417B681343C1F8903000BF0C3771
:103B7000BD465DF8047B704780B500AF01F014F9D5
:103B8000FEF7DCF800F028F800F09CF8FFF7A6FF3D
:103B9000FEF756FEFEF728FEFDF766F9FFF77AFE00
:103BA000FFF7B8FE00F09AFE00F0E4FE00F0E2F845
:103BB00000F0ACF900F05EFA00F09AFA00F0CEFCEA
:103BC00000F07CFD01F014F800F06EF9FEF7C4F887
:103BD000FEF79AFDFCE7000080B59AB000AF07F150
:103BE000200348220021184610F0E4FE3B1D00226D
:103BF0001A605A609A60DA601A615A619A6104F038
:103C0000FDFB1820FFF7A2FF2D4B1B6823F4C063B8
:103C10002B4A43F400731360294B1B6803F4C06301
:103C20003B603B686F233B624FF480337B62012330
:103C3000BB624FF48073FB620123FB630123BB640F
:103C400040233B6300233B6460237B6405237B6349
:103C50000223FB6403233B6510237B650823BB65BC
:103C60004FF40033FB654FF000537B664FF0007359
:103C70003B6607F12003184605F04CFA0346002B7B
:103C800001D000F03FF86F237B600323BB6000236B
:103C9000FB6000233B6100237B618023BB61002329
:103CA000FB613B1D0321184605F0A8FD0346002BD0
:103CB00001D000F027F800BF6837BD4680BD00BFC7
:103CC0000004005880B594B000AF3B46502200215C
:103CD000184610F06FFE4FF440533B604FF44043E2
:103CE0007B640223BB641023FB643B46184606F04A
:103CF000C2F90346002B01D000F004F800BF503792
:103D0000BD4680BD80B400AF72B600BF00BFFDE706
:103D100080B485B000AF78604FF0B043DA6C4FF0FC
:103D2000B0417B681343CB644FF0B043DA6C7B68DF
:103D30001340FB60FB6800BF1437BD465DF8047B91
:103D4000704780B485B000AF78604FF0B0431A6D13
:103D50004FF0B0417B6813430B654FF0B0431A6DD1
:103D60007B681340FB60FB6800BF1437BD465DF8FD
:103D7000047B704780B500AF0F4B104A1A600E4BA2
:103D800001225A600C4B10229A600B4B1022DA6011
:103D9000094B1B221A61084B4FF440725A61064BC3
:103DA00000229A61044804F047FB0346002B01D02F
:103DB000FFF7A8FF00BF80BDF4060020001000A0A0
:103DC00080B588B000AF786007F10C0300221A605C
:103DD0005A609A60DA601A617B681B682F4A9342C6
:103DE00057D14FF48070FFF7ACFF0220FFF790FF30
:103DF0000120FFF78DFF0820FFF78AFF4FF40073C3
:103E0000FB6002233B6100237B610223BB610A2329
:103E1000FB6107F10C031946214803F055F94FF4F3
:103E20000063FB6002233B6101237B610223BB61D2
:103E30000A23FB6107F10C031946194803F044F902
:103E40000823FB6002233B6100237B610223BB61EB
:103E50000A23FB6107F10C0319464FF0904003F071
:103E600033F9E023FB6002233B6100237B610223E3
:103E7000BB610A23FB6107F10C031946094803F0F3
:103E800023F900220F21322002F045FE322002F0F9
:103E90005CFE00BF2037BD4680BD00BF001000A003
:103EA00000040048000C004880B400AF00BFBD46CD
:103EB0005DF8047B704780B400AF4FF0B043D3F897
:103EC00090304FF0B04243F40043C2F8903000BF4E
:103ED000BD465DF8047B704780B485B000AF786064
:103EE0004FF0B0439A6D4FF0B0417B6813438B6540
:103EF0004FF0B0439A6D7B681340FB60FB6800BFD6
:103F00001437BD465DF8047B7047000080B500AFF4
:103F1000164B174A1A60154B00225A60134B0F229A
:103F20009A60124B47F6FF72DA60104B00221A615A
:103F30000E4B00229A610D4B0022DA610B4B0022DE
:103F40005A610A4806F01EFB0346002B01D0FFF71A
:103F5000D9FE00224FF6FF71044806F01FFC03460D
:103F6000002B01D0FFF7CEFE00BF80BD3807002038
:103F70000028004080B596B000AF786007F10803D4
:103F800050220021184610F015FD7B681B68124A6C
:103F900093421DD14FF40063BB604FF48073BB6448
:103FA00007F10803184606F066F80346002B01D017
:103FB000FFF7A8FEFFF77FFF4FF48060FFF78CFF4D
:103FC00000220021032002F0A6FD032002F0BDFD27
:103FD00000BF5837BD4680BD0028004080B485B082
:103FE00000AF78604FF0B043DA6C4FF0B0417B68BF
:103FF0001343CB644FF0B043DA6C7B681340FB6033
:10400000FB6800BF1437BD465DF8047B704780B481
:1040100085B000AF78604FF0B0439A6D4FF0B0417B
:104020007B6813438B654FF0B0439A6D7B681340F8
:10403000FB60FB6800BF1437BD465DF8047B70472A
:1040400080B485B000AF78604FF0B0431A6E4FF087
:10405000B0417B6813430B664FF0B0431A6E7B6828
:104060001340FB60FB6800BF1437BD465DF8047B5E
:104070007047000080B500AF1B4B1C4A1A601A4BFA
:104080004FF482725A60184B00229A60164B4FF41C
:10409000E062DA60144B02221A61134B01225A616A
:1040A000114B4FF400729A610F4B1022DA610E4BE4
:1040B00000221A620C4B00225A620B4B00229A62B9
:1040C000094B0722DA62084B00221A63064B0022D2
:1040D0005A63054806F02EFC0346002B01D0FFF77B
:1040E00011FE00BF80BD00BF5C0700200030014012
:1040F00080B500AF1A4B1B4A1A60194B4FF48272FD
:104100005A60174B00229A60154B4FF4E062DA6058
:10411000134B02221A61124B01225A61104B0022EA
:104120009A610F4B1022DA610D4B00221A620C4B80
:1041300000225A620A4B00229A62094B0722DA6275
:10414000074B00221A63064B00225A63044806F00C
:10415000F1FB0346002B01D0FFF7D4FD00BF80BD6B
:10416000C00700200038004080B588B000AF7860FC
:1041700007F10C0300221A605A609A60DA601A6133
:104180007B681B682F4A93422BD14FF48050FFF776
:1041900057FF0220FFF722FF0120FFF71FFF202318
:1041A000FB6002233B6101237B610323BB61052389
:1041B000FB6107F10C031946234802F085FF6023D9
:1041C000FB6002233B6101237B610323BB61052369
:1041D000FB6107F10C0319464FF0904002F074FFA9
:1041E0002BE07B681B68194A934226D14FF480402C
:1041F000FFF70DFF0820FFF7F1FE0123FB6002230C
:104200003B6101237B610023BB610523FB6107F157
:104210000C0319460E4802F057FF1A23FB600223D5
:104220003B6101237B610323BB610523FB6107F134
:104230000C031946064802F047FF00BF2037BD4671
:1042400080BD00BF0030014000040048003800403D
:10425000000C004880B485B000AF78604FF0B043E8
:104260001A6D4FF0B0417B6813430B654FF0B043BC
:104270001A6D7B681340FB60FB6800BF1437BD46B6
:104280005DF8047B704780B500AF4FF40020FFF766
:10429000E1FF00220021052002F03DFC052002F094
:1042A00054FC002200212B2002F035FC2B2002F0D0
:1042B0004CFC002200212E2002F02DFC2E2002F0CA
:1042C00044FC042000F002FE00F040FE002000F05C
:1042D0001DFE00BF80BD80B400AF00BFFDE780B40D
:1042E00000AF00BFFDE780B400AF00BFFDE780B4C2
:1042F00000AF00BFFDE780B400AF00BFFDE780B4B2
:1043000000AF00BFBD465DF8047B704780B400AFCE
:1043100000BFBD465DF8047B704780B400AF00BFAE
:10432000BD465DF8047B704780B500AF00F096FD98
:1043300000BF80BD80B500AFFEF746FF00BF80BD67
:1043400080B400AF00BFBD465DF8047B704780B508
:1043500000AF012003F05AF800BF80BD80B500AF68
:10436000022003F053F800BF80BD80B500AF0420E9
:1043700003F04CF800BF80BD80B500AF082003F00B
:1043800045F800BF80BD80B500AF102003F03EF8B7
:1043900000BF80BD80B500AF402003F037F880201B
:1043A00003F034F84FF4807003F030F800BF80BDA4
:1043B00080B500AF034807F010FB034807F00DFB82
:1043C00000BF80BD240800207008002080B500AF29
:1043D000024808F00DFD00BF80BD00BFBC080020F2
:1043E00080B500AF4FF4805003F010F84FF4005048
:1043F00003F00CF800BF80BD80B400AF00BFBD4625
:104400005DF8047B704780B500AF0DF0ABFF00BFD7
:1044100080BD80B500AF0DF0DBFF00BF80BD80B573
:1044200000AF03F017F800BF80BD000080B500AFFB
:10443000024804F077F800BF80BD00BFF4060020FA
:1044400080B500AF024802F02BFD00BF80BD00BF69
:10445000E409002080B400AF244BD3F88830234A0D
:1044600043F47003C2F888304FF0B0431B684FF03C
:10447000B04243F0010313604FF0B0434FF4E02229
:104480009A604FF0B0431A684FF0B041184B134098
:104490000B604FF0B043D3F894304FF0B04223F0AC
:1044A0000503C2F894304FF0B043D3F898304FF082
:1044B000B04223F00103C2F898304FF0B0430D4AE8
:1044C000DA604FF0B0430B4A1A614FF0B0431B68FB
:1044D0004FF0B04223F4802313604FF0B04300222A
:1044E0009A6100BFBD465DF8047B704700ED00E0B7
:1044F000FBFEF6FA0010042280B485B000AF7860AD
:104500004FF0B043DA6C4FF0B0417B681343CB649B
:104510004FF0B043DA6C7B681340FB60FB6800BF70
:104520001437BD465DF8047B704780B485B000AF9A
:1045300078604FF0B0431A6E4FF0B0417B68134380
:104540000B664FF0B0431A6E7B681340FB60FB684C
:1045500000BF1437BD465DF8047B704780B59CB042
:1045600000AF07F1600300221A605A609A60DA60B7
:1045700007F1540300221A605A609A6007F1380369
:1045800000221A605A609A60DA601A615A619A6170
:104590003B1D34220021184610F00CFA454B464AC8
:1045A0001A60444B00225A60424B00229A60414BF1
:1045B0004FF6FF72DA603F4B00221A613D4B00223A
:1045C0005A613C4B00229A613A4807F0EDF80346E5
:1045D000002B01D0FFF796FB4FF480533B6607F1A9
:1045E00060031946334807F0AFFC0346002B01D0A7
:1045F000FFF788FB2F4807F02EF90346002B01D068
:10460000FFF780FB00237B650023BB650023FB6570
:1046100007F154031946274808F076FA0346002BA1
:1046200001D0FFF76FFB6023BB630023FB63002314
:104630003B6400237B640023BB640023FB640023F2
:104640003B6507F13803042219461A4807F068FB56
:104650000346002B01D0FFF755FB00237B600023AE
:10466000BB600023FB6000233B6100237B614FF4B0
:104670000053BB610023FB6100233B6200237B628C
:104680004FF00073BB620023FB6200233B630023F7
:104690007B633B1D1946074808F096FA0346002B3A
:1046A00001D0FFF72FFB034800F09EF800BF7037E2
:1046B000BD4680BD24080020002C014080B584B098
:1046C00000AF3B4600221A605A609A60DA601E4BC7
:1046D0001E4A1A601C4B00225A601B4B00229A6033
:1046E000194B4FF4A072DA60174B00221A61164B77
:1046F00000225A61144B00229A61134807F054F8C3
:104700000346002B01D0FFF7FDFA0F4807F004F92C
:104710000346002B01D0FFF7F5FA00233B6001238D
:104720007B600023BB600023FB603B4600221946F0
:10473000054807F059FA0346002B01D0FFF7E2FACB
:1047400000BF1037BD4680BD700800200044014006
:1047500080B588B000AF786007F10C0300221A60C2
:104760005A609A60DA601A617B681B681B4A934240
:104770000CD14FF40060FFF7D8FE00220121192070
:1047800002F0C9F9192002F0E0F923E07B681B6808
:10479000134A93421ED14FF40030FFF7C6FE10209B
:1047A000FFF7AAFE0123FB6002233B6100237B612C
:1047B0000023BB610E23FB6107F10C031946094876
:1047C00002F082FC00220121192002F0A4F9192034
:1047D00002F0BBF900BF2037BD4680BD002C014070
:1047E000004401400010004880B588B000AF7860F8
:1047F00007F10C0300221A605A609A60DA601A61AD
:104800007B681B680D4A934213D10820FFF774FEA2
:104810004FF40043FB6002233B6100237B610023D4
:10482000BB610123FB6107F10C031946044802F048
:104830004BFC00BF2037BD4680BD00BF002C0140AF
:10484000000C004880B485B000AF78604FF0B043F2
:10485000DA6C4FF0B0417B681343CB644FF0B04348
:10486000DA6C7B681340FB60FB6800BF1437BD4601
:104870005DF8047B704780B485B000AF78604FF07E
:10488000B043DA6D4FF0B0417B681343CB654FF016
:10489000B043DA6D7B681340FB60FB6800BF1437E0
:1048A000BD465DF8047B704780B485B000AF78608A
:1048B0004FF0B0431A6E4FF0B0417B6813430B6664
:1048C0004FF0B0431A6E7B681340FB60FB6800BF7B
:1048D0001437BD465DF8047B7047000080B500AF1B
:1048E000224B234A1A60214B4FF4E1325A601F4B8E
:1048F00000229A601D4B0022DA601C4B00221A61D4
:104900001A4B0C225A61194B00229A61174B002254
:104910001A62164B00225A62144B00229A62134B01
:1049200000225A66114808F013FA0346002B01D002
:10493000FFF7E8F900210D4809F093FA0346002B30
:1049400001D0FFF7DFF90021084809F0C8FA034653
:10495000002B01D0FFF7D6F9044809F049FA0346C5
:10496000002B01D0FFF7CEF900BF80BDBC080020AE
:104970000080004080B500AF234B244A1A60224BD0
:104980004FF4E1325A60204B00229A601E4B002205
:10499000DA601D4B00221A611B4B0C225A611A4B24
:1049A0004FF440729A61184B0022DA61164B0022D4
:1049B0001A62154B00225A62134B00229A62124867
:1049C00008F0C6F90346002B01D0FFF79BF9002140
:1049D0000D4809F046FA0346002B01D0FFF792F983
:1049E0000021094809F07BFA0346002B01D0FFF7AC
:1049F00089F9054809F0FCF90346002B01D0FFF7BF
:104A000081F900BF80BD00BF50090020003801407F
:104A100080B59CB000AF786007F15C0300221A609B
:104A20005A609A60DA601A6107F10C035022002183
:104A300018460FF0BFFF7B681B684E4A934255D162
:104A40000223FB600023BB6207F10C03184605F04C
:104A500012FB0346002B01D0FFF754F90120FFF7AA
:104A60000AFF0420FFF7EEFE0323FB6502233B66EB
:104A700000237B660323BB660823FB6607F15C0308
:104A800019463D4802F020FB3C4B3D4A1A603B4B27
:104A900011225A60394B10229A60384B0022DA609A
:104AA000364B80221A61354B00225A61334B00226B
:104AB0009A61324B0022DA61304B00221A622F4891
:104AC00002F088F80346002B01D0FFF71BF97B6842
:104AD0002A4ADA67294A7B6893620022002125204E
:104AE00002F019F8252002F030F83EE07B681B68E0
:104AF000244A934239D10123FB6000237B6207F1F2
:104B00000C03184605F0B7FA0346002B01D0FFF757
:104B1000F9F84FF48040FFF7C7FE0220FFF792FE3E
:104B20000120FFF78FFE5823FB6502233B6600231D
:104B30007B660023BB660723FB6607F15C0319460F
:104B4000114802F0C1FA4FF48063FB6502233B6613
:104B500000237B660023BB660723FB6607F15C032B
:104B600019464FF0904002F0AFFA00BF7037BD46D3
:104B700080BD00BF0080004000080048E40900201C
:104B800008040240003801400004004880B485B0A9
:104B900000AF78604FF0B043DA6C4FF0B0417B6803
:104BA0001343CB644FF0B043DA6C7B681340FB6077
:104BB000FB6800BF1437BD465DF8047B704780B4C6
:104BC00085B000AF78604FF0B0439A6D4FF0B041C0
:104BD0007B6813438B654FF0B0439A6D7B6813403D
:104BE000FB60FB6800BF1437BD465DF8047B70476F
:104BF00080B500AF104B114A1A600F4B08221A7192
:104C00000D4B02225A710C4B0222DA710A4B002220
:104C10001A72094B00225A72074B00229A72064BF5
:104C20000022DA72044803F0F1FA0346002B01D0A7
:104C3000FFF768F800BF80BD440A0020006800400C
:104C400080B59CB000AF786007F15C0300221A6069
:104C50005A609A60DA601A6107F10C035022002151
:104C600018460FF0A7FE7B681B68174A934227D1AE
:104C70004FF48073FB6000233B6407F10C0318467C
:104C800005F0F9F90346002B01D0FFF73BF80120AE
:104C9000FFF77CFF4FF4C053FB6502233B66002304
:104CA0007B660323BB660A23FB6607F15C03194698
:104CB0004FF0904002F008FA4FF08060FFF77FFF5E
:104CC00000BF7037BD4680BD00680040D458C45056
:104CD0000433C4188C42F9D370470360043088420F
:104CE000FBD370470C488546FFF7B4FB0B480C49D3
:104CF0000C4A0023FFF7EDFF0B480C490C4A002338
:104D0000FFF7E7FF0B480C490023FFF7E8FF0FF020
:104D10005FFEFEF731FFFEE70000032008000020E1
:104D20007400002008570108E4010320670A0320EB
:104D3000BA570108C0000020F01B0020FEE7000069
:104D400080B400AF054B1B68044A43F001031360B5
:104D500000BFBD465DF8047B704700BF30000140D6
:104D600080B483B000AF7860064B1B6823F0040268
:104D700004497B6813430B6000BF0C37BD465DF8E8
:104D8000047B70473000014080B483B000AF78608E
:104D9000044A7B68536000BF0C37BD465DF8047B56
:104DA000704700BF3000014080B582B000AF0023E3
:104DB000FB710C4B1B680B4A43F480731360032098
:104DC00001F09EFE0F2000F00FF80346002B02D0EA
:104DD0000123FB7101E0FFF756FAFB79184608370B
:104DE000BD4680BD0040005880B584B000AF7860FB
:104DF0000023FB73174B1B78002B24D004F0AAFE72
:104E00000246144B1B7819464FF47A73B3FBF1F347
:104E1000B2FBF3F3184601F0B4FE0346002B0FD1AA
:104E20007B680F2B09D8002279684FF0FF3001F022
:104E300072FE094A7B68136007E00123FB7304E0FC
:104E40000123FB7301E00123FB73FB7B1846103742
:104E5000BD4680BD140000201000002080B400AFCB
:104E6000064B1B781A46064B1B681344044A136012
:104E700000BFBD465DF8047B704700BF14000020F2
:104E8000200D002080B400AF034B1B681846BD46C0
:104E90005DF8047B704700BF200D002080B400AF98
:104EA000034B1B681846BD465DF8047B704700BF86
:104EB0001000002080B400AF034B1B781846BD469D
:104EC0005DF8047B704700BF1400002080B584B0FB
:104ED00000AF78607868FFF743FF7B68002B05D14F
:104EE000084B1B7803F03F03FB6004E0064B1B7884
:104EF00003F03F03FB60F86800F01CF800BF1037B8
:104F0000BD4680BDF075FF1F3075FF1F80B483B0B4
:104F100000AF7860064B1B6823F0020204497B68EF
:104F200013430B6000BF0C37BD465DF8047B704730
:104F30003000014080B582B000AF78607868FFF73C
:104F400023FF00BF0837BD4680BD000080B582B09A
:104F500000AFFFF7F5FEFFF795FF786008E0FFF779
:104F600091FF02467B68D31A0A2B01D9032306E07E
:104F7000054B1B6803F00803002BF0D000231846F4
:104F80000837BD4680BD00BF3000014080B483B00B
:104F900000AF786039607B689B6823F47C123B68C3
:104FA0001A437B689A6000BF0C37BD465DF8047BEE
:104FB000704780B483B000AF786039607B689B68CD
:104FC00023F0E0723B681A437B689A6000BF0C379D
:104FD000BD465DF8047B704780B483B000AF786055
:104FE0007B689B6803F0E07318460C37BD465DF89C
:104FF000047B704780B487B000AFF860B9607A6016
:105000003B60FB6860331A46BB689B0013447B61BE
:105010007B691A68084B13407A6802F0F8413A68D5
:105020000A43134343F000427B691A6000BF1C37F8
:10503000BD465DF8047B704700F0FF0380B485B087
:1050400000AF786039607B6860331A463B689B002C
:105050001344FB60FB681B6803F0F84318461437E1
:10506000BD465DF8047B704780B487B000AFF86040
:10507000B9607A60FB6860331A46BB689B001344D2
:105080007B617B691B6823F000427B681A437B6964
:105090001A6000BF1C37BD465DF8047B704780B4C2
:1050A00087B000AFF860B9607A60FB6830331A46A9
:1050B000BB681B0A9B0003F00C0313447B617B69F4
:1050C0001A68BB6803F01F031F2101FA03F3DB43D7
:1050D0001A407B689B0E03F01F01BB6803F01F039F
:1050E00001FA03F31A437B691A6000BF1C37BD46FF
:1050F0005DF8047B704780B487B000AFF860B9609A
:105100007A60FB6814331A46BB685B0E9B0003F0A1
:10511000040313447B617B691A68BB681B0D03F0B1
:105120001F03072101FA03F3DB431A40BB681B0D81
:1051300003F01F03796801FA03F31A437B691A60CD
:1051400000BF1C37BD465DF8047B704780B485B056
:1051500000AFF860B9607A60FB68D3F8B020BB6834
:10516000C3F31203DB431A407B6803F018030849BA
:10517000D940BB680B40C3F312031A43FB68C3F862
:10518000B02000BF1437BD465DF8047B704700BFF8
:10519000FFFF070080B483B000AF78607B689B6836
:1051A00023F0204323F03F037A68936000BF0C375D
:1051B000BD465DF8047B704780B483B000AF786073
:1051C0007B689B6803F00053B3F1005F01D10123BA
:1051D00000E0002318460C37BD465DF8047B70479D
:1051E00080B483B000AF78607B689B6823F0104385
:1051F00023F03F0343F080527B689A6000BF0C3776
:10520000BD465DF8047B704780B483B000AF786022
:105210007B689B6803F08053B3F1805F01D1012369
:1052200000E0002318460C37BD465DF8047B70474C
:1052300080B483B000AF78607B689B6803F00103A3
:10524000012B01D1012300E0002318460C37BD4695
:105250005DF8047B704780B483B000AF78607B68F2
:105260009B6803F00403042B01D1012300E0002319
:1052700018460C37BD465DF8047B704780B483B098
:1052800000AF78607B689B6803F00803082B01D1AE
:10529000012300E0002318460C37BD465DF8047B6F
:1052A0007047000080B588B000AF78600023FB77BE
:1052B0000023BB610023BB607B68002B01D101236D
:1052C0002EE17B681B69002B7B685B6D002B09D18D
:1052D0007868FBF785FE7B6800229A657B68002270
:1052E00083F850207B681B681846FFF765FF03466C
:1052F000002B04D07B681B681846FFF74BFF7B68C8
:105300001B681846FFF780FF0346002B15D17B680A
:105310001B681846FFF764FF834B1B689B09834A91
:10532000A2FB03239B0901335B00BB6002E0BB6867
:10533000013BBB60BB68002BF9D17B681B6818463A
:10534000FFF762FF0346002B0DD17B685B6D43F0D6
:1053500010027B685A657B689B6D43F001027B6895
:105360009A650123FB777B681B681846FFF773FF7C
:1053700078617B685B6D03F01003002B40F0C78001
:105380007B69002B40F0C3807B685B6D23F48173E5
:1053900043F002027B685A657B681B681846FFF77A
:1053A00047FF0346002B0BD16148FFF741FF03463F
:1053B000002B05D17B685B6819465E48FFF7E6FD68
:1053C0007B685B7E5A037B685B6B1A437B68DB6898
:1053D0001A437B689B681A437B6893F820301B0450
:1053E0001343BA691343BB617B6893F82030012BE8
:1053F00006D17B685B6A013B5B04BA691343BB61FE
:105400007B689B6A002B09D07B689B6A03F47072EF
:105410007B68DB6A1343BA691343BB617B681B6813
:10542000DA68454B13407A681268B9690B43D36058
:105430007B681B681846FFF70EFF38617B681B68A6
:105440001846FFF71BFFF8603B69002B3DD1FB6856
:10545000002B3AD17B681B7E9A037B6893F830302F
:105460005B001343BB617B681B68DB6823F48043EC
:1054700023F002037A681268B9690B43D3607B6832
:1054800093F83830012B18D17B681B681B6923F413
:10549000FF6323F004037A68D16B7A68126C1143BE
:1054A0007A68526C11437A68926C0A431A437B689B
:1054B0001B6842F001021A6107E07B681B681A69E9
:1054C0007B681B6822F001021A617B681B69012B53
:1054D0000CD17B681B681B6B23F00F017B68DB69B9
:1054E0005A1E7B681B680A431A6307E07B681B68C7
:1054F0001A6B7B681B6822F00F021A637B685B6D76
:1055000023F0030343F001027B685A6507E07B68E0
:105510005B6D43F010027B685A650123FB77FB7FCC
:1055200018462037BD4680BD0C000020632D3E0587
:10553000000004500003045007C0F0FF80B5B6B06F
:1055400000AF78603960002387F8D7300023FB6014
:105550007B6893F85030012B01D102239FE37B68D5
:10556000012283F850207B681B681846FFF773FE02
:105570000346002B40F084837B6818683B685968B9
:105580003B681B681A46FFF78AFD7B681B68184654
:10559000FFF761FEC7F8D0007B681B681846FFF76D
:1055A0006DFEC7F8CC00D7F8D030002B40F0A681B4
:1055B000D7F8CC30002B40F0A1817B6818683B689D
:1055C00019683B689B681A46FFF795FD3B685A6966
:1055D0007B681B68DB68DB0803F003035B0002FAEF
:1055E00003F3C7F8C8303B681B69042B0AD07B68FB
:1055F00018683B6819693B681A68D7F8C830FFF724
:10560000F9FC7BE17B681B6800211846FFF716FD5B
:105610000346C3F31203002B0AD17B681B680021E9
:105620001846FFF70BFD03469B0E03F01F021EE01A
:105630007B681B6800211846FFF700FD0346C7F88A
:10564000BC30D7F8BC3093FAA3F3C7F8C030D7F812
:10565000C030C7F8B830D7F8B830002B01D12023BC
:1056600004E0D7F8B830B3FA83F3DBB21A463B68EC
:105670001B68C3F31203002B05D13B681B689B0E0C
:1056800003F01F0318E03B681B68C7F8B030D7F879
:10569000B03093FAA3F3C7F8AC30D7F8AC30C7F802
:1056A000B430D7F8B430002B01D1202304E0D7F870
:1056B000B430B3FA83F3DBB29A4206D17B681B683D
:1056C000002200211846FFF7CFFC7B681B680121F0
:1056D0001846FFF7B3FC0346C3F31203002B0AD1AD
:1056E0007B681B6801211846FFF7A8FC03469B0E48
:1056F00003F01F021EE07B681B6801211846FFF7BC
:105700009DFC0346C7F8A430D7F8A43093FAA3F35E
:10571000C7F8A030D7F8A030C7F8A830D7F8A8301D
:10572000002B01D1202304E0D7F8A830B3FA83F38B
:10573000DBB21A463B681B68C3F31203002B05D18A
:105740003B681B689B0E03F01F0318E03B681B6857
:10575000C7F89830D7F8983093FAA3F3C7F8943085
:10576000D7F89430C7F89C30D7F89C30002B01D183
:10577000202304E0D7F89C30B3FA83F3DBB29A42DB
:1057800006D17B681B68002201211846FFF76CFCDC
:105790007B681B6802211846FFF750FC0346C3F3E1
:1057A0001203002B0AD17B681B6802211846FFF701
:1057B00045FC03469B0E03F01F021EE07B681B683E
:1057C00002211846FFF73AFC0346C7F88C30D7F899
:1057D0008C3093FAA3F3C7F88830D7F88830C7F82D
:1057E0009030D7F89030002B01D1202304E0D7F877
:1057F0009030B3FA83F3DBB21A463B681B68C3F3FD
:105800001203002B05D13B681B689B0E03F01F039E
:1058100016E03B681B68C7F88030D7F8803093FAF1
:10582000A3F3FB67FB6FC7F88430D7F88430002BF5
:1058300001D1202304E0D7F88430B3FA83F3DBB23C
:105840009A4206D17B681B68002202211846FFF7A6
:105850000BFC7B681B6803211846FFF7EFFB034630
:10586000C3F31203002B0AD17B681B68032118467F
:10587000FFF7E4FB03469B0E03F01F0217E07B6873
:105880001B6803211846FFF7D9FB03467B677B6F34
:1058900093FAA3F33B673B6FBB67BB6F002B01D150
:1058A000202303E0BB6FB3FA83F3DBB21A463B68F5
:1058B0001B68C3F31203002B05D13B681B689B0ECA
:1058C00003F01F0311E03B681B68BB66BB6E93FAD5
:1058D000A3F37B667B6EFB66FB6E002B01D120235E
:1058E00003E0FB6EB3FA83F3DBB29A4206D17B6826
:1058F0001B68002203211846FFF7B6FB7B681B6874
:105900001846FFF795FC0346002B40F0C2817B68E8
:1059100018683B6819683B68DB681A46FFF716FC95
:105920003B68DB688E4A934240F030817B681868A0
:105930003B681B68C3F31203002B0BD13B681B6849
:105940009B0E013303F01F03092B94BF0123002397
:10595000DBB219E03B681B68FB65FB6D93FAA3F3B0
:10596000BB65BB6D3B663B6E002B01D1202303E082
:105970003B6EB3FA83F3DBB2013303F01F03092B51
:1059800094BF01230023DBB2002B79D03B681B6856
:10599000C3F31203002B07D13B681B689B0E013336
:1059A0009B0603F0F84215E03B681B683B653B6DC6
:1059B00093FAA3F3FB64FB6C7B657B6D002B01D139
:1059C000202303E07B6DB3FA83F3DBB201339B0644
:1059D00003F0F8423B681B68C3F31203002B09D1A4
:1059E0003B681B689B0E013303F01F03012101FA82
:1059F00003F317E03B681B687B647B6C93FAA3F3AB
:105A00003B643B6CBB64BB6C002B01D1202303E0E7
:105A1000BB6CB3FA83F3DBB2013303F01F03012144
:105A200001FA03F342EA03013B681B68C3F3120364
:105A3000002B0AD13B681B689B0E013303F01F0249
:105A400013465B0013441B0518E03B681B68BB63EF
:105A5000BB6B93FAA3F37B637B6BFB63FB6B002B4A
:105A600001D1202303E0FB6BB3FA83F3DBB20133F4
:105A700003F01F0213465B0013441B050B4380E039
:105A80003B681B68C3F31203002B07D13B681B68FC
:105A90009B0E01339B0603F0F84215E03B681B6840
:105AA000FB62FB6A93FAA3F3BB62BB6A3B633B6B8B
:105AB000002B01D1202303E03B6BB3FA83F3DBB26D
:105AC00001339B0603F0F8423B681B68C3F31203E3
:105AD000002B09D13B681B689B0E013303F01F03A9
